:100000000C942A000C9403120C9430120C945D1280
:100010000C945A150C9487150C9447000C944700C7
:100020000C9447000C9447000C9448140C941B1437
:100030000C9447000C9407180C9446180C94470035
:100040000C9447000C9447000C9447000C94470014
:100050000C94470011241FBECFE5D8E0DEBFCDBF12
:1000600010E0A0E6B0E0E2E8FAE402C005900D92EC
:10007000A838B107D9F710E0A8E8B0E001C01D9298
:10008000AA3CB107E1F70E94D6230C943F250C94BB
:100090000000EF92FF920F931F937B018C0120E0F1
:1000A00030E040E05FE40E94F50388238CF0C80153
:1000B000B70120E030E040E05FE40E94C1010E940F
:1000C00085049B01AC01205030404040504806C0A0
:1000D000C801B7010E9485049B01AC01B901CA01A6
:1000E0001F910F91FF90EF900895A0E0B0E0EBE733
:1000F000F0E00C940825DC012B01FA019C91923070
:1001000008F439C1EB018881823008F433C194309E
:1001100069F4843009F02FC111969C91119789815F
:10012000981709F428C1AEE7B0E025C1843009F47E
:1001300021C18230A9F4923009F01DC19A01AD01AC
:1001400088E0EA010990AE01E90109929E0181501F
:10015000C1F7E201898111969C918923818308C1AD
:10016000923009F407C112962D903C901397EB0141
:100170008A819B811496AD90BD90CD90DC901797AD
:10018000EC80FD800E811F819101281B390BB90184
:1001900037FF04C066277727621B730B6032710537
:1001A0000CF061C0121613066CF537014801062EDB
:1001B00004C096948794779467940A94D2F721E0C8
:1001C00030E040E050E004C0220F331F441F551FB1
:1001D0006A95D2F721503040404050402E213F21B7
:1001E00040235123211531054105510521F021E01E
:1001F00030E040E050E079018A01E628F72808293C
:1002000019293CC0232BD1F1260E371E350146019A
:10021000062E04C096948794779467940A94D2F734
:1002200021E030E040E050E004C0220F331F441FC3
:10023000551F6A95D2F721503040404050402A2146
:100240003B214C215D21211531054105510521F04E
:1002500021E030E040E050E059016A01A628B728CB
:10026000C828D9280BC0821593052CF01C01AA249C
:10027000BB24650103C0EE24FF24870111969C91E5
:10028000D20111968C91981709F445C0992339F041
:10029000A80197012A193B094C095D0906C0A6016E
:1002A00095012E193F09400B510B57FD08C01182D3
:1002B0003382228224833583468357831DC081E0A5
:1002C00081833382228288279927DC01821B930B4A
:1002D000A40BB50B84839583A683B7830DC0220F2F
:1002E000331F441F551F24833583468357838281E0
:1002F000938101979383828324813581468157813D
:10030000DA01C9010197A109B1098F5F9F4FAF4F72
:10031000BF4328F30BC0918333822282EA0CFB1C7B
:100320000C1D1D1DE482F5820683178383E0808304
:10033000248135814681578157FF1AC0C901AA27F8
:1003400097FDA095BA2F81709070A070B0705695EF
:10035000479537952795822B932BA42BB52B848318
:100360009583A683B7838281938101969383828349
:10037000DF0101C0D201CD01CDB7DEB7E2E10C94BF
:100380002425A0E2B0E0E7ECF1E00C9414256983A9
:100390007A838B839C832D833E834F835887E9E048
:1003A000EE2EF12CEC0EFD1ECE010196B7010E943F
:1003B000AE058E010F5E1F4FCE010596B8010E945B
:1003C000AE058A8991E089278A8BC701B801AE0101
:1003D000475E5F4F0E9475000E94D904A096E6E038
:1003E0000C943025A0E2B0E0E8EFF1E00C94142585
:1003F00069837A838B839C832D833E834F835887C5
:10040000F9E0EF2EF12CEC0EFD1ECE010196B701A6
:100410000E94AE058E010F5E1F4FCE010596B801FA
:100420000E94AE05C701B801AE01475E5F4F0E9452
:1004300075000E94D904A096E6E00C943025A0E255
:10044000B0E0E5E2F2E00C94082569837A838B83BF
:100450009C832D833E834F835887CE010196BE0136
:10046000675F7F4F0E94AE05CE010596BE016F5EAD
:100470007F4F0E94AE059985923088F0898982303D
:10048000C8F0943019F4823051F404C0843029F457
:10049000923081F48EE790E0C6C0923049F420E0BB
:1004A0009A858A89981321E02A87CE010996BBC0D4
:1004B000823049F420E09A858A89981321E02A8BBA
:1004C000CE014196B0C02D843E844F8458886D88FB
:1004D0007E888F88988CEE24FF248701AA24BB2471
:1004E000650140E050E060E070E0E0E0F0E0C10174
:1004F00081709070892BE9F0E60CF71C081D191D1E
:100500009A01AB012A0D3B1D4C1D5D1D80E090E062
:10051000A0E0B0E0E614F7040805190520F481E036
:1005200090E0A0E0B0E0BA01A901480F591F6A1F8E
:100530007B1FAA0CBB1CCC1CDD1C97FE08C081E0F5
:1005400090E0A0E0B0E0A82AB92ACA2ADB2A3196B6
:10055000E032F10549F0660C771C881C991C569412
:10056000479437942794C3CFFA85EA892B893C892D
:100570008B859C85280F391F2E5F3F4F17C0CA01FE
:1005800081709070892B61F016950795F794E79428
:1005900080E090E0A0E0B0E8E82AF92A0A2B1B2BC3
:1005A00076956795579547952F5F3F4F77FDE7CF36
:1005B0000CC0440F551F661F771F17FD4160EE0CDE
:1005C000FF1C001F111F21503040403090E05907A0
:1005D00090E0690790E4790760F32B8F3C8FDB0193
:1005E000CA018F779070A070B07080349105A1051A
:1005F000B10561F447FD0AC0E114F10401051105DC
:1006000029F0405C5F4F6F4F7F4F40781A8EFE1786
:1006100011F081E08A8F4D8F5E8F6F8F78A383E01A
:10062000898FCE0149960E94D904A096E2E10C94EC
:100630002425A8E1B0E0EFE1F3E00C9410256983F4
:100640007A838B839C832D833E834F835887B9E0C5
:10065000EB2EF12CEC0EFD1ECE010196B7010E948F
:10066000AE058E010F5E1F4FCE010596B8010E94A8
:10067000AE052985223008F47EC03989323010F465
:10068000B8017CC08A859A8989278A87243011F02D
:10069000223031F4231709F06EC06EE770E06EC0AF
:1006A000343039F41D861E861F86188A1C861B86E8
:1006B00004C0323021F484E08987B7015FC02B8504
:1006C0003C858B899C89281B390B3C872B87ED84C3
:1006D000FE840F851889AD88BE88CF88D88CEA142F
:1006E000FB040C051D0540F4EE0CFF1C001F111F40
:1006F000215030403C872B8720E030E040E050E044
:1007000080E090E0A0E0B0E460E070E0EA14FB0478
:100710000C051D0540F0282B392B4A2B5B2BEA18C2
:10072000FB080C091D09B695A79597958795EE0CC2
:10073000FF1C001F111F6F5F7F4F6F31710531F775
:10074000DA01C9018F779070A070B0708034910584
:10075000A105B10561F427FD0AC0E114F10401050A
:10076000110529F0205C3F4F4F4F5F4F20782D87B8
:100770003E874F87588BBE01675F7F4FCB010E943A
:10078000D9046896EAE00C942C25A8E1B0E0EBECE3
:10079000F3E00C94142569837A838B839C832D83E7
:1007A0003E834F83588789E0E82EF12CEC0EFD1E26
:1007B000CE010196B7010E94AE058E010F5E1F4F5C
:1007C000CE010596B8010E94AE058985823040F0C1
:1007D0008989823028F0C701B8010E94260601C02D
:1007E0008FEF6896E6E00C943025A8E1B0E0EBEFDF
:1007F000F3E00C94142569837A838B839C832D8387
:100800003E834F83588789E0E82EF12CEC0EFD1EC5
:10081000CE010196B7010E94AE058E010F5E1F4FFB
:10082000CE010596B8010E94AE058985823040F060
:100830008989823028F0C701B8010E94260601C0CC
:100840008FEF6896E6E00C943025A8E1B0E0EBE28B
:10085000F4E00C94142569837A838B839C832D8325
:100860003E834F83588789E0E82EF12CEC0EFD1E65
:10087000CE010196B7010E94AE058E010F5E1F4F9B
:10088000CE010596B8010E94AE058985823040F000
:100890008989823028F0C701B8010E94260601C06C
:1008A00081E06896E6E00C943025A8E1B0E0EBE545
:1008B000F4E00C94142569837A838B839C832D83C5
:1008C0003E834F83588789E0E82EF12CEC0EFD1E05
:1008D000CE010196B7010E94AE058E010F5E1F4F3B
:1008E000CE010596B8010E94AE058985823040F0A0
:1008F0008989823028F0C701B8010E94260601C00C
:1009000081E06896E6E00C943025ACE0B0E0EBE8DE
:10091000F4E00C94182569837A838B839C83CE0141
:100920000196BE016B5F7F4F0E94AE058D818230C4
:1009300061F1823050F1843021F48E81882351F1AD
:100940002EC02F81388537FD20C06E812F313105B3
:100950001CF06623F9F023C08EE190E0821B930B1C
:1009600029853A854B855C8504C056954795379512
:1009700027958A95D2F76623B1F05095409530952A
:1009800021953F4F4F4F5F4F0EC020E030E040E0D9
:1009900050E009C02FEF3FEF4FEF5FE704C020E0CA
:1009A00030E040E050E8B901CA012C96E2E00C9436
:1009B0003425DF92EF92FF920F931F93FC01E480A6
:1009C000F58006811781D1808081823048F480E0F3
:1009D00090E0A0E1B0E0E82AF92A0A2B1B2BA5C081
:1009E000843009F49FC0823021F4EE24FF24870173
:1009F00005C0E114F1040105110519F4E0E0F0E08F
:100A000096C0628173819FEF623879070CF05BC0FA
:100A100022E83FEF261B370B2A3131052CF020E06E
:100A200030E040E050E02AC0B801A701022E04C027
:100A300076956795579547950A94D2F781E090E0AF
:100A4000A0E0B0E004C0880F991FAA1FBB1F2A9521
:100A5000D2F70197A109B1098E219F21A023B123CB
:100A60000097A105B10521F081E090E0A0E0B0E0A1
:100A70009A01AB01282B392B4A2B5B2BDA01C901D8
:100A80008F779070A070B07080349105A105B1058A
:100A900039F427FF09C0205C3F4F4F4F5F4F04C020
:100AA000215C3F4F4F4F5F4FE0E0F0E02030A0E08F
:100AB0003A07A0E04A07A0E45A0710F0E1E0F0E0AE
:100AC00079018A0127C06038710564F5FB01E1589E
:100AD000FF4FD801C7018F779070A070B07080343D
:100AE0009105A105B10539F4E7FE0DC080E490E061
:100AF000A0E0B0E004C08FE390E0A0E0B0E0E80E3A
:100B0000F91E0A1F1B1F17FF05C016950795F794BE
:100B1000E794319687E016950795F794E7948A95C0
:100B2000D1F705C0EE24FF248701EFEFF0E06E2F30
:100B3000679566276795902F9F77D794DD24D79484
:100B40008E2F8695492F462B582F5D29B701CA0154
:100B50001F910F91FF90EF90DF900895FC01DB0152
:100B6000408151812281622F6F7770E0221F2227FE
:100B7000221F9381892F880F822B282F30E0991F05
:100B80009927991F11969C93119721153105A9F565
:100B9000411551056105710511F482E037C082E805
:100BA0009FEF13969C938E9312979A01AB0167E087
:100BB000220F331F441F551F6A95D1F783E08C9392
:100BC0000DC0220F331F441F551F12968D919C910B
:100BD0001397019713969C938E931297203080E081
:100BE000380780E0480780E4580758F314962D939F
:100BF0003D934D935C93179708952F3F310579F4FA
:100C0000411551056105710519F484E08C9308952F
:100C100064FF03C081E08C9312C01C9210C02F5758
:100C2000304013963C932E93129783E08C9387E089
:100C3000440F551F661F771F8A95D1F7706414966D
:100C40004D935D936D937C93179708951F93DC01EB
:100C5000FB019C91923008F447C08081823008F4F7
:100C600043C0943051F411961C91843099F58181E0
:100C7000682F70E0611B71093FC0843021F0923011
:100C800031F48230B9F18181882389F12DC0119628
:100C90001C9111978230F1F081811817D9F41296C6
:100CA0002D913C911397828193818217930794F041
:100CB00028173907BCF014968D919D910D90BC9129
:100CC000A02D2481358146815781281739074A078D
:100CD0005B0718F4112341F00AC082179307A40799
:100CE000B50740F4112319F061E070E005C06FEF23
:100CF0007FEF02C060E070E0CB011F910895DF93A9
:100D0000CF93CDB7DEB7809188008F5F8093880046
:100D10009091880080918900981749F480918A0009
:100D200090918B00692F41E00E94EB0C0EC08091E6
:100D30008800843151F41092880080918A0090914B
:100D40008B00692F40E00E94EB0CCF91DF9108955A
:100D5000DF93CF9300D00F92CDB7DEB789836A833C
:100D60004B8394E18B81292F281B822F809389004C
:100D7000898180938A008A8180938B008DE70E940D
:100D800012158FE796E00E943D150E94D3140E9431
:100D90008A120F900F900F90CF91DF910895DF93FB
:100DA000CF93CDB7DEB72F970FB6F894DEBF0FBE47
:100DB000CDBF8F8783E067E041E00E94EB0C83E0CA
:100DC00066E040E00E94EB0C81E06F850E94A30B7F
:100DD00083E065E041E00E94EB0C80E090E0A0E859
:100DE000BFE38B879C87AD87BE876B857C858D85B0
:100DF0009E8520E030E04AEF54E40E941F02DC01AF
:100E0000CB018F839887A987BA876F817885898579
:100E10009A8520E030E040E85FE30E9425048823C3
:100E20002CF481E090E09E838D833FC06F817885B4
:100E300089859A8520E03FEF4FE757E40E94C5037C
:100E400018164CF56B857C858D859E8520E030E0FD
:100E500040E251E40E941F02DC01CB01BC01CD0144
:100E60000E944900DC01CB019E838D830FC088EC7A
:100E700090E09C838B838B819C810197F1F79C830D
:100E80008B838D819E8101979E838D838D819E8131
:100E9000009769F714C06F81788589859A850E94CB
:100EA0004900DC01CB019E838D838D819E819A83D5
:100EB000898389819A810197F1F79A83898383E0F5
:100EC00065E040E00E94EB0C2F960FB6F894DEBF71
:100ED0000FBECDBFCF91DF910895DF93CF93CDB7F4
:100EE000DEB72F970FB6F894DEBF0FBECDBF8F874A
:100EF00083E067E040E00E94EB0C83E066E040E0C6
:100F00000E94EB0C81E06F850E94A30B83E065E0FB
:100F100041E00E94EB0C80E090E0A0E8BFE38B870B
:100F20009C87AD87BE876B857C858D859E8520E0FF
:100F300030E04AEF54E40E941F02DC01CB018F83B2
:100F40009887A987BA876F81788589859A8520E0F7
:100F500030E040E85FE30E94250488232CF481E020
:100F600090E09E838D833FC06F81788589859A85C7
:100F700020E03FEF4FE757E40E94C50318164CF5F9
:100F80006B857C858D859E8520E030E040E251E4D4
:100F90000E941F02DC01CB01BC01CD010E9449006F
:100FA000DC01CB019E838D830FC088EC90E09C8395
:100FB0008B838B819C810197F1F79C838B838D813F
:100FC0009E8101979E838D838D819E81009769F715
:100FD00014C06F81788589859A850E944900DC015B
:100FE000CB019E838D838D819E819A8389838981A4
:100FF0009A810197F1F79A83898383E065E040E065
:101000000E94EB0C2F960FB6F894DEBF0FBECDBF3B
:10101000CF91DF910895DF93CF93CDB7DEB7E897F7
:101020000FB6F894DEBF0FBECDBF80E090E0A0E227
:10103000B2E48DAB9EABAFABB8AF6DA97EA98FA963
:1010400098AD20E030E04AEF54E40E941F02DC013A
:10105000CB0189AB9AABABABBCAB69A97AA98BA925
:101060009CA920E030E040E85FE30E94250488234B
:101070002CF481E090E098AB8FA73FC069A97AA9D2
:101080008BA99CA920E03FEF4FE757E40E94C503DE
:1010900018164CF56DA97EA98FA998AD20E030E017
:1010A00040E251E40E941F02DC01CB01BC01CD01F2
:1010B0000E944900DC01CB0198AB8FA70FC088ECE0
:1010C00090E09EA78DA78DA59EA50197F1F79EA7FD
:1010D0008DA78FA598A9019798AB8FA78FA598A9E1
:1010E000009769F714C069A97AA98BA99CA90E94E5
:1010F0004900DC01CB0198AB8FA78FA598A99CA7CD
:101100008BA78BA59CA50197F1F79CA78BA788E3DC
:101110000E946D0780E090E0A0E8BFE38FA398A74E
:10112000A9A7BAA76FA178A589A59AA520E030E064
:101130004AEF54E40E941F02DC01CB018BA39CA365
:10114000ADA3BEA36BA17CA18DA19EA120E030E048
:1011500040E85FE30E94250488232CF481E090E0BE
:101160009AA389A33FC06BA17CA18DA19EA120E081
:101170003FEF4FE757E40E94C50318164CF56FA1E7
:1011800078A589A59AA520E030E040E251E40E94CC
:101190001F02DC01CB01BC01CD010E944900DC0132
:1011A000CB019AA389A30FC088EC90E098A38F8FFE
:1011B0008F8D98A10197F1F798A38F8F89A19AA19C
:1011C00001979AA389A389A19AA1009769F714C0EE
:1011D0006BA17CA18DA19EA10E944900DC01CB01E5
:1011E0009AA389A389A19AA19E8F8D8F8D8D9E8DA3
:1011F0000197F1F79E8F8D8F8CE00E946D0780E044
:1012000090E0A0E8BFE3898F9A8FAB8FBC8F698D88
:101210007A8D8B8D9C8D20E030E04AEF54E40E9463
:101220001F02DC01CB018D8B9E8BAF8BB88F6D893C
:101230007E898F89988D20E030E040E85FE30E944E
:10124000250488232CF481E090E09C8B8B8B3FC09D
:101250006D897E898F89988D20E03FEF4FE757E4B5
:101260000E94C50318164CF5698D7A8D8B8D9C8D67
:1012700020E030E040E251E40E941F02DC01CB019B
:10128000BC01CD010E944900DC01CB019C8B8B8B02
:101290000FC088EC90E09A8B898B89899A89019795
:1012A000F1F79A8B898B8B899C8901979C8B8B8B0F
:1012B0008B899C89009769F714C06D897E898F8915
:1012C000988D0E944900DC01CB019C8B8B8B8B8914
:1012D0009C89988B8F878F8598890197F1F7988BD8
:1012E0008F8781E00E946D0780E090E0A0E0B0E48D
:1012F0008B879C87AD87BE876B857C858D859E851A
:1013000020E030E04AEF54E40E941F02DC01CB01F0
:101310008F839887A987BA876F81788589859A8511
:1013200020E030E040E85FE30E94250488232CF4AD
:1013300081E090E09E838D833FC06F8178858985B1
:101340009A8520E03FEF4FE757E40E94C503181647
:101350004CF56B857C858D859E8520E030E040E2F4
:1013600051E40E941F02DC01CB01BC01CD010E94AF
:101370004900DC01CB019E838D830FC088EC90E097
:101380009C838B838B819C810197F1F79C838B835A
:101390008D819E8101979E838D838D819E81009793
:1013A00069F714C06F81788589859A850E94490004
:1013B000DC01CB019E838D838D819E819A838983FD
:1013C00089819A810197F1F79A838983E8960FB60C
:1013D000F894DEBF0FBECDBFCF91DF910895DF93AC
:1013E000CF9300D00F92CDB7DEB79B838A8319824B
:1013F0000EC08981282F30E08A819B81FC01E20F99
:10140000F31F80810E94CF0689818F5F8983898144
:10141000282F30E08A819B81FC01E20FF31F80813D
:10142000882339F70F900F900F90CF91DF91089597
:10143000DF93CF9300D000D00F92CDB7DEB78A8371
:101440006B838A81282F30E03D832C838C819D81A2
:10145000009731F02C813D812130310521F006C00B
:101460008B81898303C08B81805C898389818058CB
:101470000E946D070F900F900F900F900F90CF91DB
:10148000DF910895DF93CF93CDB7DEB727970FB6DF
:10149000F894DEBF0FBECDBF9C838B836D834E83DC
:1014A0002F838D81882F90E0880F991F880F991FB7
:1014B000880F991F8A838A81805C0E946D07198238
:1014C0000EC08981282F30E08B819C81FC01E20FC6
:1014D000F31F80810E94CF0689818F5F8983898174
:1014E000883078F38E816F810E94180A8D810E9466
:1014F000CF0627960FB6F894DEBF0FBECDBFCF91B3
:10150000DF910895DF93CF93CDB7DEB72E970FB657
:10151000F894DEBF0FBECDBF80E090E0A0E8BFE34F
:101520008B879C87AD87BE876B857C858D859E85E7
:1015300020E030E04AEF54E40E941F02DC01CB01BE
:101540008F839887A987BA876F81788589859A85DF
:1015500020E030E040E85FE30E94250488232CF47B
:1015600081E090E09E838D833FC06F81788589857F
:101570009A8520E03FEF4FE757E40E94C503181615
:101580004CF56B857C858D859E8520E030E040E2C2
:1015900051E40E941F02DC01CB01BC01CD010E947D
:1015A0004900DC01CB019E838D830FC088EC90E065
:1015B0009C838B838B819C810197F1F79C838B8328
:1015C0008D819E8101979E838D838D819E81009761
:1015D00069F714C06F81788589859A850E944900D2
:1015E000DC01CB019E838D838D819E819A838983CB
:1015F00089819A810197F1F79A83898381E00E941A
:101600006D072E960FB6F894DEBF0FBECDBFCF91FB
:10161000DF910895DF93CF93CDB7DEB72E970FB646
:10162000F894DEBF0FBECDBF9E878D871A828D8551
:101630009E85009711F580E30E94CF0622C08A8123
:10164000E82FF0E08D859E852AE030E0B9010E9408
:10165000D224282F205DCE010396E80FF91F2083A6
:101660008D859E852AE030E0B9010E94D224CB010D
:101670009E878D878A818F5F8A838D859E8500975F
:10168000F1F68A81898311C08981882F90E09C01BD
:1016900021503040CE010396FC01E20FF31F808100
:1016A0000E94CF068981815089838981882361F7CF
:1016B0002E960FB6F894DEBF0FBECDBFCF91DF914F
:1016C0000895DF93CF9300D000D0CDB7DEB78983E4
:1016D0006A838981282F30E03C832B838B819C8116
:1016E00082309105D9F02B813C812330310534F4CF
:1016F0008B819C818130910561F01EC02B813C81E2
:101700002330310581F08B819C818430910581F0FB
:1017100013C0EAE3F0E08A8180830EC0E7E3F0E0E3
:101720008A81808309C0E4E3F0E08A81808304C079
:10173000E1E3F0E08A8180830F900F900F900F908B
:10174000CF91DF910895DF93CF9300D000D0CDB734
:10175000DEB789836A838981282F30E03C832B831D
:101760008B819C8182309105D9F02B813C81233083
:10177000310534F48B819C818130910561F01EC06C
:101780002B813C812330310581F08B819C81843019
:10179000910581F013C0EBE3F0E08A8180830EC0F5
:1017A000E8E3F0E08A81808309C0E5E3F0E08A8124
:1017B000808304C0E2E3F0E08A8180830F900F9081
:1017C0000F900F90CF91DF910895DF93CF93CDB716
:1017D000DEB727970FB6F894DEBF0FBECDBF898363
:1017E0006A834B838A81883008F0ECC08B8181301A
:1017F00009F070C08981282F30E03F832E838E81CD
:101800009F818230910551F12E813F812330310536
:1018100034F48E819F818130910561F0D3C02E8197
:101820003F812330310571F18E819F818430910594
:10183000E9F1C8C0AAE3B0E0EAE3F0E08081482F14
:101840008A81282F30E081E090E0022E02C0880FCC
:10185000991F0A94E2F7842B8C93B4C0A7E3B0E0FD
:10186000E7E3F0E08081482F8A81282F30E081E093
:1018700090E0022E02C0880F991F0A94E2F7842B91
:101880008C93A0C0A4E3B0E0E4E3F0E08081482FB3
:101890008A81282F30E081E090E0022E02C0880F7C
:1018A000991F0A94E2F7842B8C938CC0A1E3B0E0DB
:1018B000E1E3F0E08081482F8A81282F30E081E049
:1018C00090E0022E02C0880F991F0A94E2F7842B41
:1018D0008C9378C08B81882309F074C08981282F6C
:1018E00030E03D832C838C819D818230910561F1B4
:1018F0002C813D812330310534F48C819D818130F0
:10190000910569F05FC02C813D812330310589F15B
:101910008C819D818430910509F440C053C0AAE3B5
:10192000B0E0EAE3F0E08081482F8A81282F30E0A0
:1019300081E090E0022E02C0880F991F0A94E2F71E
:10194000809584238C933EC0A7E3B0E0E7E3F0E00A
:101950008081482F8A81282F30E081E090E0022E9C
:1019600002C0880F991F0A94E2F7809584238C9314
:1019700029C0A4E3B0E0E4E3F0E08081482F8A814D
:10198000282F30E081E090E0022E02C0880F991FDE
:101990000A94E2F7809584238C9314C0A1E3B0E00D
:1019A000E1E3F0E08081482F8A81282F30E081E058
:1019B00090E0022E02C0880F991F0A94E2F78095EA
:1019C00084238C9327960FB6F894DEBF0FBECDBF4D
:1019D000CF91DF910895DF93CF93CDB7DEB72797EF
:1019E0000FB6F894DEBF0FBECDBF89836A834B83E9
:1019F0008A81883008F0ECC08B81813009F070C09A
:101A00008981282F30E03F832E838E819F81823011
:101A1000910551F12E813F812330310534F48E81BF
:101A20009F818130910561F0D3C02E813F812330A9
:101A3000310571F18E819F8184309105E9F1C8C033
:101A4000ABE3B0E0EBE3F0E08081482F8A81282F00
:101A500030E081E090E0022E02C0880F991F0A94C6
:101A6000E2F7842B8C93B4C0A8E3B0E0E8E3F0E0A5
:101A70008081482F8A81282F30E081E090E0022E7B
:101A800002C0880F991F0A94E2F7842B8C93A0C0A0
:101A9000A5E3B0E0E5E3F0E08081482F8A81282FBC
:101AA00030E081E090E0022E02C0880F991F0A9476
:101AB000E2F7842B8C938CC0A2E3B0E0E2E3F0E089
:101AC0008081482F8A81282F30E081E090E0022E2B
:101AD00002C0880F991F0A94E2F7842B8C9378C078
:101AE0008B81882309F074C08981282F30E03D83E1
:101AF0002C838C819D818230910561F12C813D8107
:101B00002330310534F48C819D818130910569F059
:101B10005FC02C813D812330310589F18C819D810D
:101B20008430910509F440C053C0ABE3B0E0EBE36F
:101B3000F0E08081482F8A81282F30E081E090E01A
:101B4000022E02C0880F991F0A94E2F78095842321
:101B50008C933EC0A8E3B0E0E8E3F0E08081482F3A
:101B60008A81282F30E081E090E0022E02C0880FA9
:101B7000991F0A94E2F7809584238C9329C0A5E3EA
:101B8000B0E0E5E3F0E08081482F8A81282F30E043
:101B900081E090E0022E02C0880F991F0A94E2F7BC
:101BA000809584238C9314C0A2E3B0E0E2E3F0E0DC
:101BB0008081482F8A81282F30E081E090E0022E3A
:101BC00002C0880F991F0A94E2F7809584238C93B2
:101BD00027960FB6F894DEBF0FBECDBFCF91DF9131
:101BE0000895DF93CF9300D000D00F92CDB7DEB72A
:101BF0008A836B8319828A81282F30E03D832C836E
:101C00004C815D814230510541F18C819D81833051
:101C1000910534F42C813D812130310561F052C0B1
:101C20004C815D814330510551F18C819D8184301F
:101C30009105B9F147C0E9E3F0E08081282F30E059
:101C40008B81882F90E0A90102C0559547958A9510
:101C5000E2F7CA018170898335C0E6E3F0E0808154
:101C6000282F30E08B81882F90E0A90102C0559584
:101C700047958A95E2F7CA018170898323C0E3E31F
:101C8000F0E08081282F30E08B81882F90E0A9013F
:101C900002C0559547958A95E2F7CA0181708983FC
:101CA00011C0E0E3F0E08081282F30E08B81882FA5
:101CB00090E0A90102C0559547958A95E2F7CA01BF
:101CC0008170898389810F900F900F900F900F90F2
:101CD000CF91DF910895DF93CF9300D000D0CDB79F
:101CE000DEB789836A838981282F30E03C832B8388
:101CF0008B819C818230910551F12B813C81233075
:101D0000310534F48B819C818130910561F05AC09A
:101D10002B813C812330310571F18B819C81843092
:101D20009105E9F14FC0ABE3B0E0EBE3F0E0808177
:101D3000482F8A81282F30E081E090E0022E02C0F7
:101D4000880F991F0A94E2F784278C933BC0A8E37D
:101D5000B0E0E8E3F0E08081482F8A81282F30E06E
:101D600081E090E0022E02C0880F991F0A94E2F7EA
:101D700084278C9327C0A5E3B0E0E5E3F0E0808101
:101D8000482F8A81282F30E081E090E0022E02C0A7
:101D9000880F991F0A94E2F784278C9313C0A2E35B
:101DA000B0E0E2E3F0E08081482F8A81282F30E024
:101DB00081E090E0022E02C0880F991F0A94E2F79A
:101DC00084278C930F900F900F900F90CF91DF91FD
:101DD0000895DF93CF93CDB7DEB7A1970FB6F894F0
:101DE000DEBF0FBECDBF8E8F78A36F8F49A38E8DC0
:101DF000282F220F220F8F8D98A1892F9927822BB0
:101E000080658D8F0E9400168D8D0E941A168F8D11
:101E10000E946C1689A10E946C160E949C1680E09C
:101E200090E0A0EAB0E4898F9A8FAB8FBC8F698D68
:101E30007A8D8B8D9C8D20E030E04AEF54E40E9437
:101E40001F02DC01CB018D8B9E8BAF8BB88F6D8910
:101E50007E898F89988D20E030E040E85FE30E9422
:101E6000250488232CF481E090E09C8B8B8B3FC071
:101E70006D897E898F89988D20E03FEF4FE757E489
:101E80000E94C50318164CF5698D7A8D8B8D9C8D3B
:101E900020E030E040E251E40E941F02DC01CB016F
:101EA000BC01CD010E944900DC01CB019C8B8B8BD6
:101EB0000FC088EC90E09A8B898B89899A89019769
:101EC000F1F79A8B898B8B899C8901979C8B8B8BE3
:101ED0008B899C89009769F714C06D897E898F89E9
:101EE000988D0E944900DC01CB019C8B8B8B8B89E8
:101EF0009C89988B8F878F8598890197F1F7988BAC
:101F00008F8780E090E0A0EAB0E48B879C87AD8764
:101F1000BE876B857C858D859E8520E030E04AEF0D
:101F200054E40E941F02DC01CB018F839887A987AC
:101F3000BA876F81788589859A8520E030E040E80E
:101F40005FE30E94250488232CF481E090E09E83C7
:101F50008D833FC06F81788589859A8520E03FEF2A
:101F60004FE757E40E94C50318164CF56B857C8536
:101F70008D859E8520E030E040E251E40E941F0202
:101F8000DC01CB01BC01CD010E944900DC01CB0189
:101F90009E838D830FC088EC90E09C838B838B8124
:101FA0009C810197F1F79C838B838D819E810197A2
:101FB0009E838D838D819E81009769F714C06F8108
:101FC000788589859A850E944900DC01CB019E8332
:101FD0008D838D819E819A83898389819A810197DE
:101FE000F1F79A838983A1960FB6F894DEBF0FBEEE
:101FF000CDBFCF91DF910895DF93CF9300D000D074
:102000000F92CDB7DEB78B837D836C838B81282FB6
:10201000220F220F8C819D81892F9927822B806529
:1020200089830E94001689810E941A168C810E9461
:102030006C160E94001689810E9443160E94861623
:102040008A830E949C168A810F900F900F900F90A8
:102050000F90CF91DF910895DF93CF93CDB7DEB787
:102060002A970FB6F894DEBF0FBECDBF89836A836F
:102070008981282F30E03A87298789859A858130A0
:10208000910551F129853A852230310509F443C083
:1020900089859A85009709F05CC08A81282F30E0F5
:1020A00038872F838F819885009731F02F8138856D
:1020B0002130310549F04DC0ABE5B0E0EBE5F0E093
:1020C000808180648C9345C0ABE5B0E0EBE5F0E047
:1020D00080818F7B8C933DC08A81282F30E03E83A6
:1020E0002D838D819E81009731F02D813E8121309D
:1020F000310549F02EC0ABE5B0E0EBE5F0E08081C2
:1021000080688C9326C0ABE5B0E0EBE5F0E0808121
:102110008F778C931EC08A81282F30E03C832B83DD
:102120008B819C81009731F02B813C8121303105DE
:1021300049F00FC0ABE5B0E0EBE5F0E080818062F4
:102140008C9307C0ABE5B0E0EBE5F0E080818F7DDC
:102150008C932A960FB6F894DEBF0FBECDBFCF91F9
:10216000DF910895DF93CF93CDB7DEB72A970FB6EF
:10217000F894DEBF0FBECDBF89836A838981282F83
:1021800030E03A87298789859A858130910509F45D
:1021900066C029853A852230310509F4BBC089859E
:1021A0009A85009709F0D5C08A81282F30E03887BA
:1021B0002F838F8198858130910521F12F8138857A
:1021C000223031052CF48F819885009761F0C1C0D1
:1021D0002F8138852230310521F18F819885833018
:1021E000910571F1B6C0A5E5B0E0E5E5F0E08081CC
:1021F0008E7F8C93A5E5B0E0E5E5F0E080818D7FF2
:102200008C93A7C0A5E5B0E0E5E5F0E080818160B2
:102210008C93A5E5B0E0E5E5F0E080818D7F8C93BF
:1022200098C0A5E5B0E0E5E5F0E080818E7F8C9375
:10223000A5E5B0E0E5E5F0E0808182608C9389C09F
:10224000A5E5B0E0E5E5F0E0808181608C93A5E54F
:10225000B0E0E5E5F0E0808182608C937AC08A810D
:10226000282F30E03E832D838D819E818130910522
:1022700021F12D813E81223031052CF48D819E810A
:10228000009761F066C02D813E812230310521F139
:102290008D819E818330910571F15BC0A5E5B0E031
:1022A000E5E5F0E080818B7F8C93A5E5B0E0E5E586
:1022B000F0E08081877F8C934CC0A5E5B0E0E5E538
:1022C000F0E0808184608C93A5E5B0E0E5E5F0E086
:1022D0008081877F8C933DC0A5E5B0E0E5E5F0E027
:1022E00080818B7F8C93A5E5B0E0E5E5F0E080810F
:1022F00088608C932EC0A5E5B0E0E5E5F0E0808134
:1023000084608C93A5E5B0E0E5E5F0E0808188602D
:102310008C931FC08A81282F30E03C832B838B81D4
:102320009C818230910531F02B813C812330310535
:1023300049F00FC0A4E5B0E0E4E5F0E080818F7BD8
:102340008C9307C0A4E5B0E0E4E5F0E08081806410
:102350008C932A960FB6F894DEBF0FBECDBFCF91F7
:10236000DF910895DF93CF9300D000D000D0CDB798
:10237000DEB78A837C836B8319828A81282F30E0C1
:102380003E832D838D819E8181309105B9F02D8111
:102390003E812230310501F18D819E81009749F502
:1023A0008B819C81009739F08B819C8190938D006B
:1023B00080938C001EC081E089831BC08B819C812F
:1023C000009739F08B819C8190938F0080938E00D1
:1023D00010C081E089830DC08B819C81009739F00A
:1023E0008B819C81909391008093900002C081E04A
:1023F0008983898126960FB6F894DEBF0FBECDBFC4
:10240000CF91DF9108951F920F920FB60F92112472
:102410002F933F934F935F936F937F938F939F93EC
:10242000AF93BF93EF93FF93DF93CF93CDB7DEB717
:10243000E0918C00F0918D000995CF91DF91FF9193
:10244000EF91BF91AF919F918F917F916F915F912C
:102450004F913F912F910F900FBE0F901F901895A5
:102460001F920F920FB60F9211242F933F934F9309
:102470005F936F937F938F939F93AF93BF93EF93EC
:10248000FF93DF93CF93CDB7DEB7E0918E00F0914D
:102490008F000995CF91DF91FF91EF91BF91AF919F
:1024A0009F918F917F916F915F914F913F912F916C
:1024B0000F900FBE0F901F9018951F920F920FB69E
:1024C0000F9211242F933F934F935F936F937F93BA
:1024D0008F939F93AF93BF93EF93FF93DF93CF932C
:1024E000CDB7DEB7E0919000F09191000995CF91C2
:1024F000DF91FF91EF91BF91AF919F918F917F916C
:102500006F915F914F913F912F910F900FBE0F9060
:102510001F901895DF93CF93CDB7DEB7AFE5B0E04E
:10252000EFE5F0E0808180688C93CF91DF91089592
:10253000DF93CF93CDB7DEB7AFE5B0E0EFE5F0E0E6
:1025400080818F778C93CF91DF910895AF92BF9266
:10255000CF92DF92EF92FF920F931F93DF93CF936F
:10256000CDB7DEB760970FB6F894DEBF0FBECDBF14
:1025700069837A838B839C832D833E834F83588723
:10258000E986FA860B871C87AD86BE86CF86D88AF9
:1025900029853A854B855C858D859E85AF85B88973
:1025A00079018A01E81AF90A0A0B1B0B29813A8181
:1025B0004B815C818D8D9E8DAF8DB8A1281B390B11
:1025C0004A0B5B0BC801B7010E94B3247B018C014D
:1025D00029813A814B815C818D819E81AF81B88553
:1025E000281B390B4A0B5B0BC801B7010E94E6247C
:1025F000DA01C9019C01AD0189859A85AB85BC854D
:10260000821B930BA40BB50BBC01CD0160960FB6DA
:10261000F894DEBF0FBECDBFCF91DF911F910F9118
:10262000FF90EF90DF90CF90BF90AF900895DF9331
:10263000CF93CDB7DEB784E065E041E00E94E50BC3
:102640000E947514CF91DF910895AF92BF92CF92FF
:10265000DF92EF92FF920F931F93DF93CF9300D0FF
:1026600000D00F92CDB7DEB78D838D81882F90E09B
:10267000A0E0B0E000D000D0EDB7FEB73196808387
:102680009183A283B38364EB70E080E090E020E06C
:1026900030E040E050E00F2EF4ECEF2EF9E0FF2E9A
:1026A000F0E00F2FF0E01F2FF02D0F2EF6E2AF2EEF
:1026B000F2E0BF2EF0E0CF2EF0E0DF2EF02D0E94F2
:1026C000A6120F900F900F900F90DC01CB01898321
:1026D0009A83AB83BC8389819A810E94C1140F9035
:1026E0000F900F900F900F90CF91DF911F910F914E
:1026F000FF90EF90DF90CF90BF90AF900895DF9361
:10270000CF93CDB7DEB7A3E5B0E0E3E5F0E080819D
:102710008F7B8C93A3E5B0E0E3E5F0E080818860F7
:102720008C93A9E5B0E0E9E5F0E0808182608C93CC
:10273000A3E5B0E0E3E5F0E08081887F8C93A3E53A
:10274000B0E0E3E5F0E0808183608C93CF91DF918E
:102750000895DF93CF930F92CDB7DEB78983E2E57B
:10276000F0E0898180830F90CF91DF910895DF930E
:10277000CF930F92CDB7DEB78983ECE5F0E0898186
:1027800080830F90CF91DF910895DF93CF9300D096
:102790000F92CDB7DEB79B838A8319828A819B8192
:1027A000009739F08A819B819093950080939400E3
:1027B00002C081E0898389810F900F900F90CF91A3
:1027C000DF910895DF93CF9300D00F92CDB7DEB79E
:1027D0009B838A8319828A819B81009739F08A8141
:1027E0009B81909393008093920002C081E0898343
:1027F00089810F900F900F90CF91DF910895DF9313
:10280000CF93CDB7DEB7A9E5B0E0E9E5F0E0808190
:1028100082608C93CF91DF910895DF93CF93CDB7F2
:10282000DEB7A9E5B0E0E9E5F0E080818D7F8C932B
:10283000CF91DF9108951F920F920FB60F9211243E
:102840002F933F934F935F936F937F938F939F93B8
:10285000AF93BF93EF93FF93DF93CF93CDB7DEB7E3
:10286000E0919400F09195000995CF91DF91FF914F
:10287000EF91BF91AF919F918F917F916F915F91F8
:102880004F913F912F910F900FBE0F901F90189571
:102890001F920F920FB60F9211242F933F934F93D5
:1028A0005F936F937F938F939F93AF93BF93EF93B8
:1028B000FF93DF93CF93CDB7DEB7E0919200F09115
:1028C00093000995CF91DF91FF91EF91BF91AF9167
:1028D0009F918F917F916F915F914F913F912F9138
:1028E0000F900FBE0F901F901895DF93CF93CDB729
:1028F000DEB7AFE4B0E0EFE4F0E080818E7F8C9350
:10290000AFE4B0E0EFE4F0E0808182608C93AEE46D
:10291000B0E0EEE4F0E0808188608C93AEE4B0E05B
:10292000EEE4F0E0808180618C93AFE4B0E0EFE40E
:10293000F0E080818F7B8C93AFE4B0E0EFE4F0E0D7
:10294000808180688C93E6E4F0E080E29EE49183ED
:102950008083AEE4B0E0EEE4F0E080818E7F8C9383
:10296000AEE4B0E0EEE4F0E0808182608C93AEE40F
:10297000B0E0EEE4F0E080818B7F8C93CF91DF912B
:102980000895DF93CF9300D0CDB7DEB79A838983C4
:10299000EAE4F0E089819A81918380830F900F901F
:1029A000CF91DF910895DF93CF93CDB7DEB7A5E444
:1029B000B0E0E5E4F0E080818F7B8C93A5E4B0E0AB
:1029C000E5E4F0E0808188608C93A5E4B0E0E5E484
:1029D000F0E0808184608C93A5E4B0E0E5E4F0E071
:1029E00080818D7F8C93A5E4B0E0E5E4F0E0808108
:1029F0008E7F8C93A9E5B0E0E9E5F0E08081806806
:102A00008C93CF91DF910895DF93CF930F92CDB741
:102A1000DEB78983E4E4F0E0898180830F90CF9171
:102A2000DF910895DF93CF930F92CDB7DEB78983FF
:102A3000E3E4F0E0898180830F90CF91DF910895E6
:102A4000DF93CF9300D00F92CDB7DEB79B838A83FD
:102A500019828A819B81009739F08A819B819093AA
:102A600099008093980002C081E0898389810F904A
:102A70000F900F90CF91DF910895DF93CF9300D007
:102A80000F92CDB7DEB79B838A8319828A819B819F
:102A9000009739F08A819B819093970080939600EC
:102AA00002C081E0898389810F900F900F90CF91B0
:102AB000DF9108951F920F920FB60F9211242F935A
:102AC0003F934F935F936F937F938F939F93AF93B6
:102AD000BF93EF93FF93DF93CF93CDB7DEB7E09132
:102AE0009600F09197000995CF91DF91FF91EF91BA
:102AF000BF91AF919F918F917F916F915F914F9116
:102B00003F912F910F900FBE0F901F9018951F921D
:102B10000F920FB60F9211242F933F934F935F9311
:102B20006F937F938F939F93AF93BF93EF93FF9395
:102B3000DF93CF93CDB7DEB7E0919800F091990085
:102B40000995CF91DF91FF91EF91BF91AF919F9147
:102B50008F917F916F915F914F913F912F910F9046
:102B60000FBE0F901F901895DF93CF930F92CDB7A4
:102B7000DEB78983E0E2F0E08CE08083A1E2B0E0A0
:102B8000E1E2F0E080818E7F8C93A1E2B0E0E1E2AF
:102B9000F0E080818D7F8C93A6E5B0E0E6E5F0E083
:102BA000808180648C93E2E2F0E08981880F8083E9
:102BB000A6E5B0E0E6E5F0E0808184608C930F90BC
:102BC000CF91DF910895DF93CF930F92CDB7DEB70A
:102BD0008983A6E5B0E0E6E5F0E0808180648C932F
:102BE000E2E2F0E08981880F8083A6E5B0E0E6E5C7
:102BF000F0E0808184608C930F90CF91DF910895F5
:102C0000DF93CF93CDB7DEB7A6E5B0E0E6E5F0E021
:102C1000808180628C93A6E5B0E0E6E5F0E08081FB
:102C200080688C93E6E5F0E080818823DCF7CF9123
:102C3000DF910895DF93CF930F92CDB7DEB78983ED
:102C4000E3E2F0E08981880F8083A3E2B0E0E3E271
:102C5000F0E080818E7F8C93A6E5B0E0E6E5F0E0C1
:102C600080818F7D8C93A6E5B0E0E6E5F0E0808181
:102C700080688C93E6E5F0E080818823DCF70F9094
:102C8000CF91DF910895DF93CF930F92CDB7DEB749
:102C90008983E3E2F0E08981880F8083A3E2B0E0DA
:102CA000E3E2F0E0808181608C93A6E5B0E0E6E5A8
:102CB000F0E080818F7D8C93A6E5B0E0E6E5F0E062
:102CC000808180688C93E6E5F0E080818823DCF7E2
:102CD0000F90CF91DF910895DF93CF930F92CDB7EF
:102CE000DEB78983E3E2F0E089818083A6E5B0E086
:102CF000E6E5F0E0808180688C93E6E5F0E0808195
:102D00008823DCF70F90CF91DF910895DF93CF9365
:102D1000CDB7DEB7A6E5B0E0E6E5F0E080818068FB
:102D20008C93E6E5F0E080818823DCF7E3E2F0E0D5
:102D30008081CF91DF910895DF93CF93CDB7DEB738
:102D4000A6E5B0E0E6E5F0E0808180618C93CF916C
:102D5000DF910895DF93CF930F92CDB7DEB719823D
:102D6000AAE2B0E0EAE2F0E080818B7F8C93898177
:102D700084608983898182608983E9E2F0E083E36A
:102D80008083AAE2B0E0EAE2F0E080818F778C9362
:102D9000AAE2B0E0EAE2F0E080818F7B8C93AAE2C5
:102DA000B0E0EAE2F0E080818F7D8C93AAE2B0E0AF
:102DB000EAE2F0E0808180618C93AAE2B0E0EAE28E
:102DC000F0E0808188608C93898180688983898123
:102DD0008F7B898389818F7D898389818F7E898398
:102DE0008981877F8983E0E4F0E0898180830F9087
:102DF000CF91DF910895DF93CF9300D000D000D022
:102E0000CDB7DEB78E831D8219821A821B821C8287
:102E10000BC089819A81AB81BC810196A11DB11D36
:102E200089839A83AB83BC83EBE2F0E08081829557
:102E300086958770882F90E081709070009761F47C
:102E400089819A81AB81BC81803F29E4920722E08D
:102E5000A20720E0B207E8F289819A81AB81BC81A8
:102E6000803F29E4920722E0A20720E0B20719F48C
:102E700082E08D8304C0ECE2F0E08E8180838D815E
:102E800026960FB6F894DEBF0FBECDBFCF91DF916F
:102E90000895DF93CF93CDB7DEB727970FB6F89499
:102EA000DEBF0FBECDBF9F838E831D8219821A8223
:102EB0001B821C828E819F81009799F10BC08981B2
:102EC0009A81AB81BC810196A11DB11D89839A8332
:102ED000AB83BC83EBE2F0E08081882364F08981DE
:102EE0009A81AB81BC81803F29E4920722E0A2074E
:102EF00020E0B20720F389819A81AB81BC81803FB9
:102F000029E4920722E0A20720E0B20719F482E048
:102F10008D8309C0ECE2F0E08081EE81FF81808347
:102F200002C081E08D838D8127960FB6F894DEBFB5
:102F30000FBECDBFCF91DF910895DF93CF9300D027
:102F400000D0CDB7DEB78A837C836B8319828091F2
:102F500086008130C1F48B819C810097B1F082E0C2
:102F6000809386008A8180939E008B819C819093C0
:102F70009B0080939A00AAE2B0E0EAE2F0E0808150
:102F800080628C9302C081E0898389810F900F90C9
:102F90000F900F90CF91DF910895DF93CF9300D0E2
:102FA00000D00F92CDB7DEB79B838A837D836C837D
:102FB0001982809186008130F9F48A819B81009783
:102FC000E9F08C819D810097C9F082E080938600B2
:102FD0008C819D8190939D0080939C008A819B8130
:102FE0009093A00080939F00AAE2B0E0EAE2F0E0B4
:102FF000808180688C9302C081E0898389810F90F1
:103000000F900F900F900F90CF91DF9108951F9226
:103010000F920FB60F9211242F933F934F935F930C
:103020006F937F938F939F93AF93BF93EF93FF9390
:10303000DF93CF93CDB7DEB781E080938600A09178
:103040009F00B091A000ECE2F0E080818C93E091D1
:103050009C00F0919D000995AAE2B0E0EAE2F0E060
:1030600080818F778C93CF91DF91FF91EF91BF910A
:10307000AF919F918F917F916F915F914F913F9110
:103080002F910F900FBE0F901F9018951F920F92C7
:103090000FB60F9211242F933F934F935F936F932B
:1030A0007F938F939F93AF93BF93EF93FF93DF93A0
:1030B000CF93CDB7DEB781E080938600ECE2F0E0FD
:1030C00080919E008083E0919A00F0919B00099589
:1030D000AAE2B0E0EAE2F0E080818F7D8C93CF91AC
:1030E000DF91FF91EF91BF91AF919F918F917F9170
:1030F0006F915F914F913F912F910F900FBE0F9065
:103100001F901895DF93CF93CDB7DEB78091A100C4
:103110009091A200A091A300B091A400BC01CD01A8
:1031200020E030E048EC52E40E94F201DC01CB01E7
:103130008093A1009093A200A093A300B093A40059
:10314000CF91DF910895DF93CF93CDB7DEB7809114
:10315000A7008F5F8093A7008091A700813099F42A
:103160000E94FF1380E090E0A0E0B0E08093A10017
:103170009093A200A093A300B093A40080E062E02B
:103180000E94B21018C08091A7008230A1F4109262
:10319000A700E091A500F091A6008091A100909178
:1031A000A200A091A300B091A40080839183A28388
:1031B000B3830E940D14CF91DF910895DF93CF93D5
:1031C000CDB7DEB7C254D0400FB6F894DEBF0FBE05
:1031D000CDBF8FAFFE01E05CFF4F6083FE01EF5B70
:1031E000FF4F518340830E948A12FE01EF5BFF4F25
:1031F000808191819093A6008093A50082E898E158
:103200000E94E21384E60E94B7130E947F130E947B
:103210000D148FADFE01E05CFF4F608140E00E9425
:10322000EB0C80E090E0A0E0B0E48BAF9CAFADAFE2
:10323000BEAF6BAD7CAD8DAD9EAD2BEA3AEA4AE2F6
:1032400050E40E941F02DC01CB018FAB98AFA9AF05
:10325000BAAF6FA978AD89AD9AAD20E030E040E813
:103260005FE30E94250488231CF481E08EAB91C0AB
:103270006FA978AD89AD9AAD20E030E04FE753E417
:103280000E94C50318160CF07BC06BAD7CAD8DADF4
:103290009EAD20E030E04AE754E40E941903DC01CF
:1032A000CB018AAB9BABACABBDAB6AA97BA98CA9AC
:1032B0009DA920E030E04AEF54E40E941F02DC01A7
:1032C000CB018EA79FA7A8ABB9AB6EA57FA588A998
:1032D00099A920E030E040E85FE30E9425048823BC
:1032E0002CF481E090E09DA78CA73FC06EA57FA540
:1032F00088A999A920E03FEF4FE757E40E94C50352
:1033000018164CF56AA97BA98CA99DA920E030E08C
:1033100040E251E40E941F02DC01CB01BC01CD015F
:103320000E944900DC01CB019DA78CA70FC088EC4F
:1033300090E09BA78AA78AA59BA50197F1F79BA779
:103340008AA78CA59DA501979DA78CA78CA59DA557
:10335000009769F724C06EA57FA588A999A90E9446
:103360004900DC01CB019DA78CA78CA59DA599A741
:1033700088A788A599A50197F1F799A788A70FC0F5
:103380006FA978AD89AD9AAD0E944900DC01CB01EF
:103390008EAB8EA98FA38FA18A95F1F78FA38FADE6
:1033A000FE01E05CFF4F608141E00E94EB0C80E099
:1033B00090E0A0E2B1E48BA39CA3ADA3BEA36BA15C
:1033C0007CA18DA19EA12BEA3AEA4AE250E40E9438
:1033D0001F02DC01CB018F8F98A3A9A3BAA36F8D25
:1033E00078A189A19AA120E030E040E85FE30E9443
:1033F000250488231CF481E08E8F91C06F8D78A105
:1034000089A19AA120E030E04FE753E40E94C50370
:1034100018160CF07BC06BA17CA18DA19EA120E0B1
:1034200030E04AE754E40E941903DC01CB018A8FA3
:103430009B8FAC8FBD8F6A8D7B8D8C8D9D8D20E099
:1034400030E04AEF54E40E941F02DC01CB018E8B76
:103450009F8BA88FB98F6E897F89888D998D20E089
:1034600030E040E85FE30E94250488232CF481E0EB
:1034700090E09D8B8C8B3FC06E897F89888D998D64
:1034800020E03FEF4FE757E40E94C50318164CF5C4
:103490006A8D7B8D8C8D9D8D20E030E040E251E483
:1034A0000E941F02DC01CB01BC01CD010E9449003A
:1034B000DC01CB019D8B8C8B0FC088EC90E09B8B4B
:1034C0008A8B8A899B890197F1F79B8B8A8B8C89E0
:1034D0009D8901979D8B8C8B8C899D89009769F7BD
:1034E00024C06E897F89888D998D0E944900DC01F6
:1034F000CB019D8B8C8B8C899D89998B888B88893E
:1035000099890197F1F7998B888B0FC06F8D78A1FE
:1035100089A19AA10E944900DC01CB018E8F8E8D7A
:103520008F878F858A95F1F78F878FADFE01E05CDD
:10353000FF4F608140E00E94EB0C80E060E00E9461
:103540002C1080E063E00E94B21023EA38E180E0B2
:10355000B9010E94B21180E090E0A0EAB1E48B874B
:103560009C87AD87BE876B857C858D859E8520E099
:1035700030E04AEF54E40E941F02DC01CB018F834C
:103580009887A987BA876F81788589859A8520E091
:1035900030E040E85FE30E94250488232CF481E0BA
:1035A00090E09E838D833FC06F81788589859A8561
:1035B00020E03FEF4FE757E40E94C50318164CF593
:1035C0006B857C858D859E8520E030E040E251E46E
:1035D0000E941F02DC01CB01BC01CD010E94490009
:1035E000DC01CB019E838D830FC088EC90E09C832F
:1035F0008B838B819C810197F1F79C838B838D81D9
:103600009E8101979E838D838D819E81009769F7AE
:1036100014C06F81788589859A850E944900DC01F4
:10362000CB019E838D838D819E819A83898389813D
:103630009A810197F1F79A838983CE5BDF4F0FB6AA
:10364000F894DEBF0FBECDBFCF91DF910895DF9319
:10365000CF9300D0CDB7DEB70E94820A8091A90037
:10366000282F30E03A83298389819A81009751F08D
:1036700029813A812130310549F480E690E00E94A9
:10368000EF0904C08AE690E00E94EF0980E06BE059
:103690000E94180A85E790E00E94EF098091A90036
:1036A000813039F48091AD00882F90E00E940A0BA0
:1036B00006C08091AB00882F90E00E940A0B81E049
:1036C00060E00E94180A89E790E00E94EF0980916B
:1036D000AC00882F90E00E940A0B0F900F90CF91C2
:1036E000DF910895DF93CF93CDB7DEB784E067E035
:1036F00040E00E94EB0C84E066E040E00E94EB0CAE
:1037000084E064E040E00E94EB0C83E063E040E092
:103710000E94EB0C83E064E040E00E94EB0C82E04E
:1037200067E04AE00E94A8068AE08093AB0090918F
:10373000AB0080E06AE070E0492F0E94E90E81E072
:103740008093A8000E94271B84E067E041E00E946C
:10375000EB0C82E063E041E00E94EB0C82E064E06D
:1037600040E00E94EB0C82E065E041E00E94EB0C3F
:1037700082E066E040E00E94EB0CCF91DF9108957B
:10378000DF93CF93CDB7DEB784E067E040E00E94DF
:10379000EB0C84E066E040E00E94EB0C84E064E027
:1037A00040E00E94EB0C83E063E040E00E94EB0C01
:1037B00083E064E040E00E94EB0C84E067E041E0DD
:1037C0000E94EB0C82E063E041E00E94EB0C82E09F
:1037D00064E040E00E94EB0C82E065E041E00E9482
:1037E000EB0C82E066E040E00E94EB0CCF91DF91B1
:1037F0000895DF93CF93CDB7DEB782E063E040E07A
:103800000E94EB0C82E064E040E00E94EB0C82E05E
:1038100065E040E00E94EB0C82E066E040E00E9440
:10382000EB0C1092A8001092AB009091AB0080E0DE
:1038300064E170E0492F0E94E90E0E94271B84E09A
:1038400067E040E00E94EB0C84E066E040E00E940C
:10385000EB0C84E064E040E00E94EB0C83E063E06A
:1038600040E00E94EB0C83E064E040E00E94EB0C3F
:10387000CF91DF910895DF93CF93CDB7DEB782E08C
:1038800063E040E00E94EB0C82E064E040E00E94D4
:10389000EB0C82E065E040E00E94EB0C82E066E029
:1038A00040E00E94EB0C84E067E040E00E94EB0CFB
:1038B00084E066E040E00E94EB0C84E064E040E0DD
:1038C0000E94EB0C83E063E040E00E94EB0C83E09D
:1038D00064E040E00E94EB0CCF91DF910895DF930C
:1038E000CF93CDB7DEB784E067E040E00E94EB0CF9
:1038F00084E066E040E00E94EB0C84E064E040E09D
:103900000E94EB0C83E063E040E00E94EB0C83E05C
:1039100064E040E00E94EB0C82E067E048E00E9437
:10392000A80688E08093AB009091AB0080E06EE148
:1039300070E0492F0E94E90E0E94271B8091BA0077
:103940009091BB00A091BC00B091BD008093C600D7
:103950009093C700A093C800B093C90083E063E0D0
:1039600041E00E94EB0C83E064E041E00E94EB0C3C
:1039700082E063E040E00E94EB0C82E064E041E022
:103980000E94EB0C82E065E040E00E94EB0C82E0DC
:1039900066E041E00E94EB0C21C02EEA30E082E0BC
:1039A00061E0A9010E94DE188091AE009091AF0005
:1039B000A091B000B091B100BC01CD0129E23CE57D
:1039C0004FE85CE30E941F02DC01CB018093BA0048
:1039D0009093BB00A093BC00B093BD008091C60043
:1039E0009091C700A091C800B091C900BC01CD0161
:1039F00020E030E040E450E40E94F201DC01CB0121
:103A00002091BA003091BB004091BC005091BD00A4
:103A1000BC01CD010E94C50318160CF4BECFCF9196
:103A2000DF910895DF93CF93CDB7DEB784E067E0F1
:103A300040E00E94EB0C84E066E040E00E94EB0C6A
:103A400084E064E040E00E94EB0C83E063E040E04F
:103A50000E94EB0C83E064E040E00E94EB0C83E00A
:103A600063E041E00E94EB0C83E064E041E00E94EF
:103A7000EB0C82E063E040E00E94EB0C82E064E04B
:103A800041E00E94EB0C82E065E040E00E94EB0C1C
:103A900082E066E041E00E94EB0CCF91DF91089557
:103AA000DF93CF93CDB7DEB72E970FB6F894DEBF76
:103AB0000FBECDBF84E067E040E00E94EB0C84E0E5
:103AC00066E040E00E94EB0C84E064E040E00E948D
:103AD000EB0C83E063E040E00E94EB0C83E064E0E9
:103AE00040E00E94EB0C84E066E041E00E94EB0CB9
:103AF00082E067E047E00E94A80687E08093AB0081
:103B00009091AB0080E068E270E0492F0E94E90EDE
:103B10000E94271B82E063E041E00E94EB0C82E000
:103B200064E040E00E94EB0C82E065E040E00E942F
:103B3000EB0C82E066E040E00E94EB0C21C02EEA34
:103B400030E082E061E0A9010E94DE188091AE00C1
:103B50009091AF00A091B000B091B100BC01CD0137
:103B600029E23CE54FE85CE30E941F02DC01CB0147
:103B70008093BA009093BB00A093BC00B093BD00AB
:103B80008091BA009091BB00A091BC00B091BD00A3
:103B9000BC01CD0120E030E040E251E40E94250468
:103BA00088236CF20E94F91B87E80E94251380E0AD
:103BB00090E0AAEFB3E48B879C87AD87BE876B85C7
:103BC0007C858D859E8520E030E04AEF54E40E949C
:103BD0001F02DC01CB018F839887A987BA876F8189
:103BE000788589859A8520E030E040E85FE30E948F
:103BF000250488232CF481E090E09E838D833FC0D0
:103C00006F81788589859A8520E03FEF4FE757E4FB
:103C10000E94C50318164CF56B857C858D859E85A5
:103C200020E030E040E251E40E941F02DC01CB01C1
:103C3000BC01CD010E944900DC01CB019E838D8334
:103C40000FC088EC90E09C838B838B819C810197D3
:103C5000F1F79C838B838D819E8101979E838D8359
:103C60008D819E81009769F714C06F817885898561
:103C70009A850E944900DC01CB019E838D838D8152
:103C80009E819A83898389819A810197F1F79A832A
:103C9000898322EB30E082E061E0A9010E94DE1816
:103CA0008091B2009091B300A091B400B091B500A2
:103CB000BC01CD0129E23CE54FE85CE30E941F0214
:103CC000DC01CB018093BE009093BF00A093C000A5
:103CD000B093C1008091BE009091BF00A091C00040
:103CE000B091C100BC01CD0120E030E040E251E4E0
:103CF0000E94250488230CF04FC00E94271B84E0FB
:103D000066E041E00E94EB0C82E063E041E00E944B
:103D1000EB0C82E064E040E00E94EB0C82E065E0A6
:103D200040E00E94EB0C82E066E040E00E94EB0C79
:103D300021C022EB30E082E061E0A9010E94DE18A0
:103D40008091B2009091B300A091B400B091B50001
:103D5000BC01CD0129E23CE54FE85CE30E941F0273
:103D6000DC01CB018093BE009093BF00A093C00004
:103D7000B093C1008091BE009091BF00A091C0009F
:103D8000B091C100BC01CD0120E030E040E251E43F
:103D90000E94250488236CF28AE50E9425132E9642
:103DA0000FB6F894DEBF0FBECDBFCF91DF9108955F
:103DB000DF93CF93CDB7DEB784E067E040E00E94A9
:103DC000EB0C84E066E040E00E94EB0C84E064E0F1
:103DD00040E00E94EB0C83E063E040E00E94EB0CCB
:103DE00083E064E040E00E94EB0C84E066E041E0A8
:103DF0000E94EB0C82E063E041E00E94EB0C82E069
:103E000064E040E00E94EB0C82E065E040E00E944C
:103E1000EB0C82E066E040E00E94EB0CCF91DF917A
:103E20000895DF93CF93CDB7DEB72E970FB6F894F2
:103E3000DEBF0FBECDBF84E067E040E00E94EB0C28
:103E400084E066E040E00E94EB0C84E064E040E047
:103E50000E94EB0C83E063E040E00E94EB0C83E007
:103E600064E040E00E94EB0C84E064E041E00E94EA
:103E7000EB0C82E067E047E00E94A80687E08093B1
:103E8000AB009091AB0080E062E370E0492F0E94AC
:103E9000E90E0E94271B82E063E040E00E94EB0CE9
:103EA00082E064E040E00E94EB0C82E065E041E0EB
:103EB0000E94EB0C82E066E040E00E94EB0C21C027
:103EC0002EEA30E082E061E0A9010E94DE188091D4
:103ED000AE009091AF00A091B000B091B100BC01D4
:103EE000CD0129E23CE54FE85CE30E941F02DC01C2
:103EF000CB018093BA009093BB00A093BC00B09319
:103F0000BD008091BA009091BB00A091BC00B0911F
:103F1000BD00BC01CD0120E030E040E251E40E9450
:103F2000250488236CF20E94F91B8DE20E94251360
:103F300080E090E0AAEFB3E48B879C87AD87BE87D3
:103F40006B857C858D859E8520E030E04AEF54E4CA
:103F50000E941F02DC01CB018F839887A987BA8753
:103F60006F81788589859A8520E030E040E85FE3BD
:103F70000E94250488232CF481E090E09E838D83A9
:103F80003FC06F81788589859A8520E03FEF4FE7B4
:103F900057E40E94C50318164CF56B857C858D850A
:103FA0009E8520E030E040E251E40E941F02DC01E7
:103FB000CB01BC01CD010E944900DC01CB019E83F5
:103FC0008D830FC088EC90E09C838B838B819C81D8
:103FD0000197F1F79C838B838D819E8101979E834E
:103FE0008D838D819E81009769F714C06F817885DC
:103FF00089859A850E944900DC01CB019E838D83CF
:104000008D819E819A83898389819A810197F1F7B5
:104010009A83898326EB30E082E061E0A9010E9467
:10402000DE188091B6009091B700A091B800B091D1
:10403000B900BC01CD0129E23CE54FE85CE30E94F8
:104040001F02DC01CB018093C2009093C300A093B8
:10405000C400B093C5008091C2009091C300A091AC
:10406000C400B091C500BC01CD0120E030E040E2C9
:1040700051E40E94250488230CF04FC00E94271BA6
:1040800084E064E041E00E94EB0C82E063E040E009
:104090000E94EB0C82E064E040E00E94EB0C82E0C6
:1040A00065E041E00E94EB0C82E066E040E00E94A7
:1040B000EB0C21C026EB30E082E061E0A9010E9418
:1040C000DE188091B6009091B700A091B800B09131
:1040D000B900BC01CD0129E23CE54FE85CE30E9458
:1040E0001F02DC01CB018093C2009093C300A09318
:1040F000C400B093C5008091C2009091C300A0910C
:10410000C400B091C500BC01CD0120E030E040E228
:1041100051E40E94250488236CF28AE50E9425134D
:104120002E960FB6F894DEBF0FBECDBFCF91DF91B4
:104130000895DF93CF93CDB7DEB784E067E040E02A
:104140000E94EB0C84E066E040E00E94EB0C84E00F
:1041500064E040E00E94EB0C83E063E040E00E94FA
:10416000EB0C83E064E040E00E94EB0C84E064E050
:1041700041E00E94EB0C82E063E040E00E94EB0C27
:1041800082E064E040E00E94EB0C82E065E041E008
:104190000E94EB0C82E066E040E00E94EB0CCF91C5
:1041A000DF910895DF93CF9300D0CDB7DEB7909124
:1041B000AD0082E067E0492F0E94A8060E94271BFD
:1041C00087E890E00E94491780918700882F90E04F
:1041D000C0978A309105C4F480918700882F90E0C1
:1041E000C097880F991F8093AD009091AD0082E039
:1041F00067E0492F0E94A8069091AD0080E06CE333
:1042000070E0492F0E94E90E80918700282F30E04E
:104210003A83298389819A8184369105D9F029814D
:104220003A812536310534F489819A8181369105A8
:10423000E9F022C029813A812337310589F089814B
:104240009A8187379105C1F40E94C01B86E680934E
:104250008700B4CF0E94D81E86E680938700AECF39
:104260000E94121D86E680938700A8CF0E949920A5
:1042700086E680938700A2CF0E943B1C86E680934F
:1042800087009CCFDF93CF93CDB7DEB7AC970FB647
:10429000F894DEBF0FBECDBF2EEA30E082E061E0D1
:1042A000A9010E94DE188091AE009091AF00A0910C
:1042B000B000B091B100BC01CD0129E23CE54FE86E
:1042C0005CE30E941F02DC01CB018093BA00909353
:1042D000BB00A093BC00B093BD008091BA00909148
:1042E000BB00A091BC00B091BD00BC01CD0120E09D
:1042F00030E040EC50E40E94C50318163CF4809175
:10430000A800813049F20E94721BC6CF8091BA008A
:104310009091BB00A091BC00B091BD00BC01CD014B
:1043200020E030E040EC50E40E94550418160CF4F4
:10433000B3CF8091AC008F5F8093AC009091AC00C4
:1043400080E060E070E0492F0E94E90E0E94F91BB6
:1043500080E00E94251380E090E0AAEFB3E48FA3F1
:1043600098A7A9A7BAA76FA178A589A59AA520E0C3
:1043700030E04AEF54E40E941F02DC01CB018BA322
:104380009CA3ADA3BEA36BA17CA18DA19EA120E0A7
:1043900030E040E85FE30E94250488232CF481E0AC
:1043A00090E09AA389A33FC06BA17CA18DA19EA19F
:1043B00020E03FEF4FE757E40E94C50318164CF585
:1043C0006FA178A589A59AA520E030E040E251E4EC
:1043D0000E941F02DC01CB01BC01CD010E944900FB
:1043E000DC01CB019AA389A30FC088EC90E098A3CD
:1043F0008F8F8F8D98A10197F1F798A38F8F89A147
:104400009AA101979AA389A389A19AA1009769F714
:1044100014C06BA17CA18DA19EA10E944900DC016A
:10442000CB019AA389A389A19AA19E8F8D8F8D8D8F
:104430009E8D0197F1F79E8F8D8F22EB30E082E009
:1044400061E0A9010E94DE188091B2009091B30052
:10445000A091B400B091B500BC01CD0129E23CE5CA
:104460004FE85CE30E941F02DC01CB018093BE0099
:104470009093BF00A093C000B093C10084EB0E9452
:10448000251380E090E0AAEFB3E4898F9A8FAB8F79
:10449000BC8F698D7A8D8B8D9C8D20E030E04AEF4A
:1044A00054E40E941F02DC01CB018D8B9E8BAF8BED
:1044B000B88F6D897E898F89988D20E030E040E843
:1044C0005FE30E94250488232CF481E090E09C8B1C
:1044D0008B8B3FC06D897E898F89988D20E03FEF5F
:1044E0004FE757E40E94C50318164CF5698D7A8D85
:1044F0008B8D9C8D20E030E040E251E40E941F0251
:10450000DC01CB01BC01CD010E944900DC01CB01E3
:104510009C8B8B8B0FC088EC90E09A8B898B898960
:104520009A890197F1F79A8B898B8B899C890197DE
:104530009C8B8B8B8B899C89009769F714C06D8944
:104540007E898F89988D0E944900DC01CB019C8B6C
:104550008B8B8B899C89988B8F878F859889019706
:10456000F1F7988B8F8726EB30E082E061E0A901BC
:104570000E94DE188091B6009091B700A091B8001B
:10458000B091B900BC01CD0129E23CE54FE85CE304
:104590000E941F02DC01CB018093C2009093C300F4
:1045A000A093C400B093C5008AE50E94251380E063
:1045B00090E0AAEFB3E48B879C87AD87BE876B85BD
:1045C0007C858D859E8520E030E04AEF54E40E9492
:1045D0001F02DC01CB018F839887A987BA876F817F
:1045E000788589859A8520E030E040E85FE30E9485
:1045F000250488232CF481E090E09E838D833FC0C6
:104600006F81788589859A8520E03FEF4FE757E4F1
:104610000E94C50318164CF56B857C858D859E859B
:1046200020E030E040E251E40E941F02DC01CB01B7
:10463000BC01CD010E944900DC01CB019E838D832A
:104640000FC088EC90E09C838B838B819C810197C9
:10465000F1F79C838B838D819E8101979E838D834F
:104660008D819E81009769F714C06F817885898557
:104670009A850E944900DC01CB019E838D838D8148
:104680009E819A83898389819A810197F1F79A8320
:1046900089838091BE009091BF00A091C000B0912D
:1046A000C1001CA6BC01CD0120E030E040E051E497
:1046B0000E942504882314F481E08CA781E09CA546
:1046C00089278823E9F48091C2009091C300A091CA
:1046D000C400B091C5001BA6BC01CD0120E030E0B4
:1046E00040E051E40E942504882314F481E08BA764
:1046F00081E09BA58927882319F40E946F1C26CE90
:104700008091BE009091BF00A091C000B091C10007
:104710002091C2003091C3004091C4005091C50067
:10472000BC01CD010E94F50388231CF00E94501D9E
:10473000B3CD8091BE009091BF00A091C000B09118
:10474000C1002091C2003091C3004091C40050913B
:10475000C500BC01CD010E94250488230CF09CCD2E
:104760000E94111F99CDDF93CF9300D0CDB7DEB754
:104770008091A900282F30E03A83298389819A818A
:10478000009751F029813A812130310551F410927E
:10479000A9000E94422105C081E08093A9000E94E7
:1047A000D2200F900F90CF91DF910895DF93CF9398
:1047B000CDB7DEB782E060E040E00E94E50B82E02A
:1047C00060E041E00E94EB0C82E063E041E00E9487
:1047D000E50B82E064E041E00E94E50B82E065E0E9
:1047E00041E00E94E50B82E066E041E00E94E50BBB
:1047F00082E067E041E00E94E50B84E062E040E097
:104800000E94E50B82E061E041E00E94E50B0E941E
:1048100017138AE50E94251382E063E040E00E94BE
:10482000EB0C82E064E040E00E94EB0C82E065E08B
:1048300040E00E94EB0C82E066E040E00E94EB0C5E
:104840002EEA30E082E061E0A9010E94DE1880914A
:10485000AE009091AF00A091B000B091B100BC014A
:10486000CD0129E23CE54FE85CE30E941F02DC0138
:10487000CB018093BA009093BB00A093BC00B0938F
:10488000BD0084E063E040E00E94E50B84E063E06B
:1048900041E00E94EB0C0E948A1281E060E00E94DD
:1048A0002C1081E062E00E94B21023EB33E281E041
:1048B000B9010E94B2110E94AA1684E060E040E0B3
:1048C0000E94E50B84E061E041E00E94E50B84E09A
:1048D00067E041E00E94E50B84E066E041E00E9471
:1048E000E50B84E064E041E00E94E50B83E063E0D7
:1048F00041E00E94E50B83E064E041E00E94E50BAB
:1049000081E06FEF0E94610B83E067E041E00E946D
:10491000E50B83E066E041E00E94E50B83E065E0A3
:1049200041E00E94E50B0E940B0880E00E94B41554
:1049300083E060E041E00E94E50B83E061E041E05C
:104940000E94E50B80E06CE370E00E94FC0F809316
:10495000AD0080E060E070E00E94FC0F8093AC004E
:104960000E944221FDCF629FD001739FF001829F80
:10497000E00DF11D649FE00DF11D929FF00D839FEE
:10498000F00D749FF00D659FF00D9927729FB00D8B
:10499000E11DF91F639FB00DE11DF91FBD01CF019E
:1049A00011240895AA1BBB1B51E107C0AA1FBB1FFE
:1049B000A617B70710F0A61BB70B881F991F5A95AB
:1049C000A9F780959095BC01CD010895A1E21A2E1A
:1049D000AA1BBB1BFD010DC0AA1FBB1FEE1FFF1FA3
:1049E000A217B307E407F50720F0A21BB30BE40BF3
:1049F000F50B661F771F881F991F1A9469F760953A
:104A00007095809590959B01AC01BD01CF010895F3
:104A10002F923F924F925F926F927F928F929F92CE
:104A2000AF92BF92CF92DF92EF92FF920F931F93BC
:104A3000CF93DF93CDB7DEB7CA1BDB0B0FB6F8946D
:104A4000DEBF0FBECDBF09942A88398848885F84AD
:104A50006E847D848C849B84AA84B984C884DF801E
:104A6000EE80FD800C811B81AA81B981CE0FD11D02
:104A70000FB6F894DEBF0FBECDBFED010895F894D8
:024A8000FFCF66
:104A8200424C5545544F4F544800554C5452415393
:104A92004F4E49430053503A004F42533A000000F0
:084AA2000000000000000166A5
:00000001FF
